{
  "contractName": "BondingCurve",
  "abi": [
    {
      "constant": true,
      "inputs": [],
      "name": "supply",
      "outputs": [
        {
          "name": "",
          "type": "uint256"
        }
      ],
      "payable": false,
      "stateMutability": "view",
      "type": "function"
    },
    {
      "constant": true,
      "inputs": [
        {
          "name": "",
          "type": "address"
        }
      ],
      "name": "mHolders",
      "outputs": [
        {
          "name": "holder",
          "type": "address"
        },
        {
          "name": "ntoken",
          "type": "uint256"
        },
        {
          "name": "target",
          "type": "uint256"
        }
      ],
      "payable": false,
      "stateMutability": "view",
      "type": "function"
    },
    {
      "constant": true,
      "inputs": [],
      "name": "curSoldPrice",
      "outputs": [
        {
          "name": "",
          "type": "uint256"
        }
      ],
      "payable": false,
      "stateMutability": "view",
      "type": "function"
    },
    {
      "constant": true,
      "inputs": [],
      "name": "initPrice",
      "outputs": [
        {
          "name": "",
          "type": "uint256"
        }
      ],
      "payable": false,
      "stateMutability": "view",
      "type": "function"
    },
    {
      "constant": true,
      "inputs": [],
      "name": "mToken",
      "outputs": [
        {
          "name": "",
          "type": "address"
        }
      ],
      "payable": false,
      "stateMutability": "view",
      "type": "function"
    },
    {
      "constant": true,
      "inputs": [
        {
          "name": "",
          "type": "uint256"
        }
      ],
      "name": "arrayHolders",
      "outputs": [
        {
          "name": "",
          "type": "address"
        }
      ],
      "payable": false,
      "stateMutability": "view",
      "type": "function"
    },
    {
      "inputs": [
        {
          "name": "_tokenAddress",
          "type": "address"
        }
      ],
      "payable": false,
      "stateMutability": "nonpayable",
      "type": "constructor"
    },
    {
      "constant": false,
      "inputs": [
        {
          "name": "_ntoken",
          "type": "uint256"
        },
        {
          "name": "_target",
          "type": "uint256"
        }
      ],
      "name": "buyTokens",
      "outputs": [
        {
          "name": "",
          "type": "bool"
        }
      ],
      "payable": false,
      "stateMutability": "nonpayable",
      "type": "function"
    },
    {
      "constant": false,
      "inputs": [
        {
          "name": "amount",
          "type": "uint256"
        }
      ],
      "name": "sellTokens",
      "outputs": [
        {
          "name": "",
          "type": "bool"
        }
      ],
      "payable": false,
      "stateMutability": "nonpayable",
      "type": "function"
    },
    {
      "constant": false,
      "inputs": [
        {
          "name": "_price",
          "type": "uint256"
        }
      ],
      "name": "changeTargetPrice",
      "outputs": [
        {
          "name": "",
          "type": "bool"
        }
      ],
      "payable": false,
      "stateMutability": "nonpayable",
      "type": "function"
    },
    {
      "constant": true,
      "inputs": [],
      "name": "queryNextPrice",
      "outputs": [
        {
          "name": "",
          "type": "uint256"
        }
      ],
      "payable": false,
      "stateMutability": "view",
      "type": "function"
    },
    {
      "constant": true,
      "inputs": [],
      "name": "getTokenSupply",
      "outputs": [
        {
          "name": "",
          "type": "uint256"
        }
      ],
      "payable": false,
      "stateMutability": "view",
      "type": "function"
    },
    {
      "constant": true,
      "inputs": [],
      "name": "getTokenBalance",
      "outputs": [
        {
          "name": "",
          "type": "uint256"
        }
      ],
      "payable": false,
      "stateMutability": "view",
      "type": "function"
    }
  ],
  "bytecode": "0x608060405234801561001057600080fd5b50604051602080610b818339810160405251600160a060020a038116151561003757600080fd5b60008054600160a060020a03909216600160a060020a031990921691909117905560646004556001600555610b10806100716000396000f3006080604052600436106100b95763ffffffff7c0100000000000000000000000000000000000000000000000000000000600035041663047fc9aa81146100be57806314fc35de146100e557806324eee4ca146100fa5780634644d17e146101435780634ad685f91461016f5780636c11bcd3146101845780637975ce281461019c57806382b2e257146101b7578063ad974f4c146101cc578063b6add0f4146101e1578063c3b6f939146101f6578063fddbcc7a14610227575b600080fd5b3480156100ca57600080fd5b506100d361023f565b60408051918252519081900360200190f35b3480156100f157600080fd5b506100d3610245565b34801561010657600080fd5b5061011b600160a060020a0360043516610299565b60408051600160a060020a039094168452602084019290925282820152519081900360600190f35b34801561014f57600080fd5b5061015b6004356102c5565b604080519115158252519081900360200190f35b34801561017b57600080fd5b506100d3610306565b34801561019057600080fd5b5061015b60043561030c565b3480156101a857600080fd5b5061015b600435602435610505565b3480156101c357600080fd5b506100d36108f5565b3480156101d857600080fd5b506100d3610931565b3480156101ed57600080fd5b506100d3610937565b34801561020257600080fd5b5061020b61093d565b60408051600160a060020a039092168252519081900360200190f35b34801561023357600080fd5b5061020b60043561094c565b60045481565b600080600454111561025a5750600554610296565b6004541515610296576001600061026f610974565b600160a060020a0316600160a060020a031681526020019081526020016000206002015490505b90565b6001602081905260009182526040909120805491810154600290910154600160a060020a039092169183565b33600090815260016020526040812054600160a060020a031615156102e957600080fd5b503360009081526001602081905260409091206002019190915590565b60035481565b336000908152600160205260408120548190600160a060020a0316151561033257600080fd5b336000908152600160208190526040909120015483111561035257600080fd5b60055461036690849063ffffffff610a9816565b60008054604080517f70a0823100000000000000000000000000000000000000000000000000000000815230600482015290519394508493600160a060020a03909216926370a08231926024808401936020939083900390910190829087803b1580156103d257600080fd5b505af11580156103e6573d6000803e3d6000fd5b505050506040513d60208110156103fc57600080fd5b5051101561040957600080fd5b60008054604080517fa9059cbb000000000000000000000000000000000000000000000000000000008152336004820152602481018590529051600160a060020a039092169263a9059cbb926044808401936020939083900390910190829087803b15801561047757600080fd5b505af115801561048b573d6000803e3d6000fd5b505050506040513d60208110156104a157600080fd5b505115156104ae57600080fd5b33600090815260016020819052604090912001546104d2908463ffffffff610ac316565b33600090815260016020819052604090912001556004546104f9908463ffffffff610ad516565b60045550600192915050565b336000908152600160205260408120548190819081908190600160a060020a031615156105c75760408051606081018252338082526000602080840182815284860183815284845260019283905295832094518554600160a060020a039190911673ffffffffffffffffffffffffffffffffffffffff199182161786559051858301559451600294850155835490810184559290527f405787fa12a823e0f2b7631cc41b3ba8828b3321ca811111fa75cd3aa3bb5ace90910180549092161790555b6000600454111561071b5760045487116105e157866105e5565b6004545b600054600554919550600160a060020a0316906323b872dd903390309061061390899063ffffffff610a9816565b604080517c010000000000000000000000000000000000000000000000000000000063ffffffff8716028152600160a060020a0394851660048201529290931660248301526044820152905160648083019260209291908290030181600087803b15801561068057600080fd5b505af1158015610694573d6000803e3d6000fd5b505050506040513d60208110156106aa57600080fd5b505115156106b757600080fd5b33600090815260016020819052604090912001546106db908563ffffffff610ad516565b3360009081526001602081905260409091200155600454610702908563ffffffff610ac316565b6004553360009081526001602052604090206002018690555b60045415156108e85761072c610974565b600160a060020a0381166000908152600160208190526040909120015490935087116107585786610776565b600160a060020a038316600090815260016020819052604090912001545b600160a060020a0384166000908152600160205260409020600201549092506107a690839063ffffffff610a9816565b60008054600160a060020a0386811683526001602090815260408085205481517f23b872dd000000000000000000000000000000000000000000000000000000008152336004820152908416602482015260448101879052905195965091909216936323b872dd93606480840194938390030190829087803b15801561082b57600080fd5b505af115801561083f573d6000803e3d6000fd5b505050506040513d602081101561085557600080fd5b5051151561086257600080fd5b600160a060020a0383166000908152600160208190526040909120015461088f908363ffffffff610ac316565b600160a060020a038416600090815260016020819052604080832082019390935533825291902001546108c8908363ffffffff610ad516565b336000908152600160208190526040909120908101919091556002018690555b5060019695505050505050565b33600090815260016020526040812054600160a060020a0316151561091957600080fd5b50336000908152600160208190526040909120015490565b60045490565b60055481565b600054600160a060020a031681565b600280548290811061095a57fe5b600091825260209091200154600160a060020a0316905081565b600080805b600254811015610a53576001600060028381548110151561099657fe5b6000918252602080832090910154600160a060020a0316835282019290925260400190206001015415156109c957610a4b565b600160006002848154811015156109dc57fe5b6000918252602080832090910154600160a060020a03168352820192909252604001812060029081015481549092600192909185908110610a1957fe5b6000918252602080832090910154600160a060020a031683528201929092526040019020600201541115610a4b578091505b600101610979565b60016000600284815481101515610a6657fe5b6000918252602080832090910154600160a060020a039081168452908301939093526040909101902054169250505090565b6000828202831580610ab45750828482811515610ab157fe5b04145b1515610abc57fe5b9392505050565b600082821115610acf57fe5b50900390565b600082820183811015610abc57fe00a165627a7a72305820738bd9ed42dbdfbc64dcf0c431514fa32df7cdc3c7d7ab889dfcff71fe21426f0029",
  "source": "pragma solidity ^0.4.24;\n\nimport \"./Token.sol\";\nimport './zeppelin/SafeMath.sol';\n\ncontract BondingCurve {\n\n  using SafeMath for uint256;\n\n  Token public mToken;\n\n  struct Holder {\n    address   holder;   // holder address\n    uint256   ntoken;   // number of bonded token\n    uint256   target;    // the target sell price\n  }\n  // mapping address to associated holder struct\n  mapping (address => Holder) public mHolders;\n  // the holder array used to find highest target sell price\n  address[] public arrayHolders;\n\n  // latest sold price\n  uint256 public  curSoldPrice;\n\n  // the number of remaining bonded tokens\n  uint256 public  supply;\n  uint256 public  initPrice;\n\n  modifier validHolder() {\n    require(mHolders[msg.sender].holder != address(0));\n    _;\n  }\n\n  ///////////////////////////////////////////////////////////////////\n  //  Constructor function\n  ///////////////////////////////////////////////////////////////////\n  // 1. constructor\n  constructor(address _tokenAddress) public {\n      require(_tokenAddress != address(0));\n      // instantiate deployed Ocean token contract\n      mToken = Token(_tokenAddress);\n      // initial available supply of bonded token\n      supply = 100;\n      // inital price for bonded token\n      initPrice = 1;\n  }\n\n  function buyTokens(uint256 _ntoken, uint256 _target) public returns (bool) {\n    // first check whether the holder exist, if not, create holder struct\n    if (mHolders[msg.sender].holder == address(0)){\n        mHolders[msg.sender] = Holder(msg.sender, 0, 0);\n        arrayHolders.push(msg.sender);\n    }\n\n    // if supply is available, buy bonded token upto available balance with fixed price\n    if(supply > 0) {\n      uint256 amount = (_ntoken > supply) ? supply : _ntoken;\n      // make payment\n      require(mToken.transferFrom(msg.sender, address(this), amount.mul(initPrice)));\n      // update balance\n      mHolders[msg.sender].ntoken = mHolders[msg.sender].ntoken.add(amount);\n      // update supply\n      supply = supply.sub(amount);\n      // update target price\n      mHolders[msg.sender].target = _target;\n    }\n\n    // if all bonded tokens are sold out, buy from another holders\n    // buy the tokens with target price from the nextSeller\n    // for time being, we limit the buy amount equals to balance of nextSeller\n    // we will improve this to buy more in the next available sellers in the future\n    if(supply == 0){\n      // find next seller\n      address seller = findNextHolder();\n      // calculate amount of tokens to buy\n      uint256 num =  (_ntoken > mHolders[seller].ntoken) ? mHolders[seller].ntoken : _ntoken;\n      // calculate cost\n      uint256 cost = num.mul(mHolders[seller].target);\n      // make payment\n      require(mToken.transferFrom(msg.sender, mHolders[seller].holder, cost));\n      // update seller balance\n      mHolders[seller].ntoken = mHolders[seller].ntoken.sub(num);\n      // update buyer balance\n      mHolders[msg.sender].ntoken = mHolders[msg.sender].ntoken.add(num);\n      // there is no change in total supply\n      mHolders[msg.sender].target = _target;\n    }\n    return true;\n  }\n\n  function sellTokens(uint256 amount) public validHolder returns (bool) {\n    // holder shall have enough bonded token to sell\n    require(mHolders[msg.sender].ntoken >= amount);\n    // calculate payout of reserved token\n    uint256 payout = amount.mul(initPrice);\n    // ensure the contract has enough reserved token to pay out\n    require(mToken.balanceOf(address(this)) >= payout);\n    // transfer reserved token to holder\n    require(mToken.transfer(msg.sender, payout));\n    // decrease the balance of bonded token for seller\n    mHolders[msg.sender].ntoken = mHolders[msg.sender].ntoken.sub(amount);\n    // update supply\n    supply = supply.add(amount);\n    return true;\n  }\n\n  function changeTargetPrice(uint256 _price) public validHolder returns (bool) {\n    // change his target sell price\n    mHolders[msg.sender].target = _price;\n    return true;\n  }\n\n  // query the next available sell price\n  function queryNextPrice() public view returns(uint256) {\n    //check remaining supply\n    if(supply > 0){\n      return initPrice;\n    } else if (supply == 0){\n      return mHolders[findNextHolder()].target;\n    }\n  }\n\n\n  function getTokenSupply() public view returns (uint256) {\n    return supply;\n  }\n\n  // query balance of bonded token\n  function getTokenBalance() public view validHolder returns (uint256) {\n    return mHolders[msg.sender].ntoken;\n  }\n\n  function findNextHolder() internal view returns(address) {\n    uint256 maximal = 0;\n    for(uint256 i; i < arrayHolders.length; i++){\n        // skip holders with zero token balance\n        if(mHolders[arrayHolders[i]].ntoken == 0){\n          continue;\n        }\n        // find the holder with highest target sell price\n        if(mHolders[arrayHolders[i]].target > mHolders[arrayHolders[maximal]].target){\n            maximal = i;\n        }\n    }\n\n    return mHolders[arrayHolders[maximal]].holder;\n  }\n\n}\n",
  "sourcePath": "/Users/fancy/Documents/Ocean Protocol/research/10-bonding-curve/equilibrium-bonding-curve/contracts/BondingCurve.sol",
  "compiler": {
    "name": "solc",
    "version": "0.4.24+commit.e67f0147.Emscripten.clang"
  },
  "schemaVersion": "2.0.0",
  "updatedAt": "2018-08-23T01:07:40.596Z"
}