{
  "contractName": "BondingCurve",
  "abi": [
    {
      "constant": true,
      "inputs": [],
      "name": "supply",
      "outputs": [
        {
          "name": "",
          "type": "uint256"
        }
      ],
      "payable": false,
      "stateMutability": "view",
      "type": "function"
    },
    {
      "constant": true,
      "inputs": [
        {
          "name": "",
          "type": "address"
        }
      ],
      "name": "mHolders",
      "outputs": [
        {
          "name": "holder",
          "type": "address"
        },
        {
          "name": "ntoken",
          "type": "uint256"
        },
        {
          "name": "target",
          "type": "uint256"
        }
      ],
      "payable": false,
      "stateMutability": "view",
      "type": "function"
    },
    {
      "constant": true,
      "inputs": [],
      "name": "curSoldPrice",
      "outputs": [
        {
          "name": "",
          "type": "uint256"
        }
      ],
      "payable": false,
      "stateMutability": "view",
      "type": "function"
    },
    {
      "constant": true,
      "inputs": [],
      "name": "initPrice",
      "outputs": [
        {
          "name": "",
          "type": "uint256"
        }
      ],
      "payable": false,
      "stateMutability": "view",
      "type": "function"
    },
    {
      "constant": true,
      "inputs": [],
      "name": "mToken",
      "outputs": [
        {
          "name": "",
          "type": "address"
        }
      ],
      "payable": false,
      "stateMutability": "view",
      "type": "function"
    },
    {
      "constant": true,
      "inputs": [
        {
          "name": "",
          "type": "uint256"
        }
      ],
      "name": "arrayHolders",
      "outputs": [
        {
          "name": "holder",
          "type": "address"
        },
        {
          "name": "ntoken",
          "type": "uint256"
        },
        {
          "name": "target",
          "type": "uint256"
        }
      ],
      "payable": false,
      "stateMutability": "view",
      "type": "function"
    },
    {
      "inputs": [
        {
          "name": "_tokenAddress",
          "type": "address"
        }
      ],
      "payable": false,
      "stateMutability": "nonpayable",
      "type": "constructor"
    },
    {
      "constant": false,
      "inputs": [
        {
          "name": "_ntoken",
          "type": "uint256"
        },
        {
          "name": "_target",
          "type": "uint256"
        }
      ],
      "name": "buyTokens",
      "outputs": [
        {
          "name": "",
          "type": "bool"
        }
      ],
      "payable": false,
      "stateMutability": "nonpayable",
      "type": "function"
    },
    {
      "constant": false,
      "inputs": [
        {
          "name": "amount",
          "type": "uint256"
        }
      ],
      "name": "sellTokens",
      "outputs": [
        {
          "name": "",
          "type": "bool"
        }
      ],
      "payable": false,
      "stateMutability": "nonpayable",
      "type": "function"
    },
    {
      "constant": false,
      "inputs": [
        {
          "name": "_price",
          "type": "uint256"
        }
      ],
      "name": "changeTargetPrice",
      "outputs": [
        {
          "name": "",
          "type": "bool"
        }
      ],
      "payable": false,
      "stateMutability": "nonpayable",
      "type": "function"
    },
    {
      "constant": true,
      "inputs": [],
      "name": "queryNextPrice",
      "outputs": [
        {
          "name": "",
          "type": "uint256"
        }
      ],
      "payable": false,
      "stateMutability": "view",
      "type": "function"
    },
    {
      "constant": true,
      "inputs": [],
      "name": "getTokenBalance",
      "outputs": [
        {
          "name": "",
          "type": "uint256"
        }
      ],
      "payable": false,
      "stateMutability": "view",
      "type": "function"
    }
  ],
  "bytecode": "0x608060405234801561001057600080fd5b50604051602080610b228339810160405251600160a060020a038116151561003757600080fd5b60008054600160a060020a03909216600160a060020a03199092169190911790556064600455600a600555610ab1806100716000396000f3006080604052600436106100955763ffffffff60e060020a600035041663047fc9aa811461009a57806314fc35de146100c157806324eee4ca146100d65780634644d17e1461011f5780634ad685f91461014b5780636c11bcd3146101605780637975ce281461017857806382b2e25714610193578063b6add0f4146101a8578063c3b6f939146101bd578063fddbcc7a146101ee575b600080fd5b3480156100a657600080fd5b506100af610206565b60408051918252519081900360200190f35b3480156100cd57600080fd5b506100af61020c565b3480156100e257600080fd5b506100f7600160a060020a036004351661024b565b60408051600160a060020a039094168452602084019290925282820152519081900360600190f35b34801561012b57600080fd5b50610137600435610277565b604080519115158252519081900360200190f35b34801561015757600080fd5b506100af6102b8565b34801561016c57600080fd5b506101376004356102be565b34801561018457600080fd5b506101376004356024356104a2565b34801561019f57600080fd5b506100af61088f565b3480156101b457600080fd5b506100af6108cb565b3480156101c957600080fd5b506101d26108d1565b60408051600160a060020a039092168252519081900360200190f35b3480156101fa57600080fd5b506100f76004356108e0565b60045481565b6000610216610a5a565b6000600454111561022b576005549150610247565b60045415156102475761023c61091b565b509050806040015191505b5090565b6001602081905260009182526040909120805491810154600290910154600160a060020a039092169183565b33600090815260016020526040812054600160a060020a0316151561029b57600080fd5b503360009081526001602081905260409091206002019190915590565b60035481565b336000908152600160205260408120548190600160a060020a031615156102e457600080fd5b336000908152600160208190526040909120015483111561030457600080fd5b60055461031890849063ffffffff610a0e16565b60008054604080517f70a0823100000000000000000000000000000000000000000000000000000000815230600482015290519394508493600160a060020a03909216926370a08231926024808401936020939083900390910190829087803b15801561038457600080fd5b505af1158015610398573d6000803e3d6000fd5b505050506040513d60208110156103ae57600080fd5b505110156103bb57600080fd5b60008054604080517fa9059cbb000000000000000000000000000000000000000000000000000000008152336004820152602481018590529051600160a060020a039092169263a9059cbb926044808401936020939083900390910190829087803b15801561042957600080fd5b505af115801561043d573d6000803e3d6000fd5b505050506040513d602081101561045357600080fd5b5051151561046057600080fd5b3360009081526001602081905260409091200154610484908463ffffffff610a3916565b50600454610498908463ffffffff610a4b16565b5060019392505050565b6000806104ad610a5a565b3360009081526001602052604081205481908190600160a060020a031615156105c55760408051606081018252338082526000602080840182815284860183815293835260019182905294822093518454600160a060020a0391821673ffffffffffffffffffffffffffffffffffffffff1991821617865595518583019081559351600280870191825580549384018155909352935460039091027f405787fa12a823e0f2b7631cc41b3ba8828b3321ca811111fa75cd3aa3bb5ace810180549096169190941617909355547f405787fa12a823e0f2b7631cc41b3ba8828b3321ca811111fa75cd3aa3bb5acf82015590547f405787fa12a823e0f2b7631cc41b3ba8828b3321ca811111fa75cd3aa3bb5ad0909101555b600060045411156106eb5760045488116105df57876105e3565b6004545b600054600554919650600160a060020a0316906323b872dd9033903090610611908a9063ffffffff610a0e16565b6040805160e060020a63ffffffff8716028152600160a060020a0394851660048201529290931660248301526044820152905160648083019260209291908290030181600087803b15801561066557600080fd5b505af1158015610679573d6000803e3d6000fd5b505050506040513d602081101561068f57600080fd5b5051151561069c57600080fd5b33600090815260016020819052604090912001546106c0908663ffffffff610a4b16565b506004546106d4908663ffffffff610a3916565b503360009081526001602052604090206002018790555b6004541515610881576106fc61091b565b93509350836020015188116107115787610717565b83602001515b915061074c60028481548110151561072b57fe5b90600052602060002090600302016002015483610a0e90919063ffffffff16565b60005460028054929350600160a060020a03909116916323b872dd9133918790811061077457fe5b600091825260208083206003909202909101546040805160e060020a63ffffffff8816028152600160a060020a0395861660048201529490911660248501526044840187905251606480850194929391928390030190829087803b1580156107db57600080fd5b505af11580156107ef573d6000803e3d6000fd5b505050506040513d602081101561080557600080fd5b5051151561081257600080fd5b6108458260028581548110151561082557fe5b906000526020600020906003020160010154610a3990919063ffffffff16565b50336000908152600160208190526040909120015461086a908363ffffffff610a4b16565b503360009081526001602052604090206002018790555b506001979650505050505050565b33600090815260016020526040812054600160a060020a031615156108b357600080fd5b50336000908152600160208190526040909120015490565b60055481565b600054600160a060020a031681565b60028054829081106108ee57fe5b6000918252602090912060039091020180546001820154600290920154600160a060020a03909116925083565b610923610a5a565b600080805b6002548110156109b257600280548290811061094057fe5b9060005260206000209060030201600101546000141561095f576109aa565b600280548390811061096d57fe5b90600052602060002090600302016002015460028281548110151561098e57fe5b90600052602060002090600302016002015411156109aa578091505b600101610928565b60028054839081106109c057fe5b6000918252602091829020604080516060810182526003939093029091018054600160a060020a03168352600181015493830193909352600290920154918101919091529491935090915050565b6000828202831580610a2a5750828482811515610a2757fe5b04145b1515610a3257fe5b9392505050565b600082821115610a4557fe5b50900390565b600082820183811015610a3257fe5b6060604051908101604052806000600160a060020a03168152602001600081526020016000815250905600a165627a7a72305820d27578c1a91588d6cdf867df5148c118874655de38ad64cf41ec09fa1890957f0029",
  "source": "pragma solidity ^0.4.24;\n\nimport \"./Token.sol\";\nimport './zeppelin/SafeMath.sol';\n\ncontract BondingCurve {\n\n  using SafeMath for uint256;\n\n  Token public mToken;\n\n  struct Holder {\n    address   holder;   // holder address\n    uint256   ntoken;   // number of bonded token\n    uint256   target;    // the target sell price\n  }\n  // mapping address to associated holder struct\n  mapping (address => Holder) public mHolders;\n  // the holder array used to find highest target sell price\n  Holder[] public arrayHolders;\n\n  // latest sold price\n  uint256 public  curSoldPrice;\n\n  // the number of remaining bonded tokens\n  uint256 public  supply;\n  uint256 public  initPrice;\n\n  modifier validHolder() {\n    require(mHolders[msg.sender].holder != address(0));\n    _;\n  }\n\n  ///////////////////////////////////////////////////////////////////\n  //  Constructor function\n  ///////////////////////////////////////////////////////////////////\n  // 1. constructor\n  constructor(address _tokenAddress) public {\n      require(_tokenAddress != address(0));\n      // instantiate deployed Ocean token contract\n      mToken = Token(_tokenAddress);\n      // initial available supply of bonded token\n      supply = 100;\n      // inital price for bonded token\n      initPrice = 10;\n  }\n\n\n  function buyTokens(uint256 _ntoken, uint256 _target) public returns (bool) {\n    // first check whether the holder exist, if not, create holder struct\n    if (mHolders[msg.sender].holder == address(0)){\n        mHolders[msg.sender] = Holder(msg.sender, 0, 0);\n        // push into holders arrayHolders\n        arrayHolders.push(mHolders[msg.sender]);\n    }\n\n    // if supply is available, buy bonded token upto available balance with fixed price\n    if(supply > 0) {\n      uint256 amount = (_ntoken > supply) ? supply : _ntoken;\n      // make payment\n      require(mToken.transferFrom(msg.sender, address(this), amount.mul(initPrice)));\n      // update balance\n      mHolders[msg.sender].ntoken.add(amount);\n      // update supply\n      supply.sub(amount);\n      // update target price\n      mHolders[msg.sender].target = _target;\n    }\n\n    // if all bonded tokens are sold out, buy from another holders\n    // buy the tokens with target price from the nextSeller\n    // for time being, we limit the buy amount equals to balance of nextSeller\n    // we will improve this to buy more in the next available sellers in the future\n    if(supply == 0){\n      // find next seller\n      (Holder memory next, uint256 idx) = findNextHolder();\n      // calculate amount of tokens to buy\n      uint256 num =  (_ntoken > next.ntoken) ? next.ntoken : _ntoken;\n      // calculate cost\n      uint256 cost = num.mul(arrayHolders[idx].target);\n      // make payment\n      require(mToken.transferFrom(msg.sender, arrayHolders[idx].holder, cost));\n      // update seller balance\n      arrayHolders[idx].ntoken.sub(num);\n      // update buyer balance\n      mHolders[msg.sender].ntoken.add(num);\n      // there is no change in total supply\n      mHolders[msg.sender].target = _target;\n    }\n    return true;\n  }\n\n  function sellTokens(uint256 amount) public validHolder returns (bool) {\n    // holder shall have enough bonded token to sell\n    require(mHolders[msg.sender].ntoken >= amount);\n    // calculate payout of reserved token\n    uint256 payout = amount.mul(initPrice);\n    // ensure the contract has enough reserved token to pay out\n    require(mToken.balanceOf(address(this)) >= payout);\n    // transfer reserved token to holder\n    require(mToken.transfer(msg.sender, payout));\n    // decrease the balance of bonded token for seller\n    mHolders[msg.sender].ntoken.sub(amount);\n    // update supply\n    supply.add(amount);\n    return true;\n  }\n\n  function changeTargetPrice(uint256 _price) public validHolder returns (bool) {\n    // change his target sell price\n    mHolders[msg.sender].target = _price;\n    return true;\n  }\n\n  // query the next available sell price\n  function queryNextPrice() public view returns(uint256) {\n    //check remaining supply\n    if(supply > 0){\n      return initPrice;\n    } else if (supply == 0){\n      (Holder memory next, ) = findNextHolder();\n      return next.target;\n    }\n  }\n\n  // query balance of bonded token\n  function getTokenBalance() public view validHolder returns (uint256) {\n    return mHolders[msg.sender].ntoken;\n  }\n\n  function findNextHolder() internal view returns(Holder, uint) {\n    uint256 maximal = 0;\n    for(uint256 i; i < arrayHolders.length; i++){\n        // skip holders with zero token balance\n        if(arrayHolders[i].ntoken == 0){\n          continue;\n        }\n        // find the holder with highest target sell price\n        if(arrayHolders[i].target > arrayHolders[maximal].target){\n            maximal = i;\n        }\n    }\n    return (arrayHolders[maximal], maximal);\n  }\n\n}\n",
  "sourcePath": "/Users/fancy/Documents/Ocean Protocol/research/10-bonding-curve/equilibrium-bonding-curve/contracts/BondingCurve.sol",
  "compiler": {
    "name": "solc",
    "version": "0.4.24+commit.e67f0147.Emscripten.clang"
  },
  "schemaVersion": "2.0.0",
  "updatedAt": "2018-08-23T00:00:17.620Z"
}