{
  "contractName": "Token",
  "abi": [
    {
      "constant": true,
      "inputs": [],
      "name": "name",
      "outputs": [
        {
          "name": "",
          "type": "string"
        }
      ],
      "payable": false,
      "stateMutability": "view",
      "type": "function"
    },
    {
      "constant": true,
      "inputs": [],
      "name": "totalSupply",
      "outputs": [
        {
          "name": "",
          "type": "uint256"
        }
      ],
      "payable": false,
      "stateMutability": "view",
      "type": "function"
    },
    {
      "constant": true,
      "inputs": [],
      "name": "decimals",
      "outputs": [
        {
          "name": "",
          "type": "uint8"
        }
      ],
      "payable": false,
      "stateMutability": "view",
      "type": "function"
    },
    {
      "constant": true,
      "inputs": [],
      "name": "initialSupply",
      "outputs": [
        {
          "name": "",
          "type": "uint256"
        }
      ],
      "payable": false,
      "stateMutability": "view",
      "type": "function"
    },
    {
      "constant": false,
      "inputs": [
        {
          "name": "_spender",
          "type": "address"
        },
        {
          "name": "_subtractedValue",
          "type": "uint256"
        }
      ],
      "name": "decreaseApproval",
      "outputs": [
        {
          "name": "success",
          "type": "bool"
        }
      ],
      "payable": false,
      "stateMutability": "nonpayable",
      "type": "function"
    },
    {
      "constant": true,
      "inputs": [
        {
          "name": "_owner",
          "type": "address"
        }
      ],
      "name": "balanceOf",
      "outputs": [
        {
          "name": "balance",
          "type": "uint256"
        }
      ],
      "payable": false,
      "stateMutability": "view",
      "type": "function"
    },
    {
      "constant": true,
      "inputs": [],
      "name": "owner",
      "outputs": [
        {
          "name": "",
          "type": "address"
        }
      ],
      "payable": false,
      "stateMutability": "view",
      "type": "function"
    },
    {
      "constant": true,
      "inputs": [],
      "name": "symbol",
      "outputs": [
        {
          "name": "",
          "type": "string"
        }
      ],
      "payable": false,
      "stateMutability": "view",
      "type": "function"
    },
    {
      "constant": false,
      "inputs": [
        {
          "name": "_spender",
          "type": "address"
        },
        {
          "name": "_addedValue",
          "type": "uint256"
        }
      ],
      "name": "increaseApproval",
      "outputs": [
        {
          "name": "success",
          "type": "bool"
        }
      ],
      "payable": false,
      "stateMutability": "nonpayable",
      "type": "function"
    },
    {
      "inputs": [],
      "payable": false,
      "stateMutability": "nonpayable",
      "type": "constructor"
    },
    {
      "anonymous": false,
      "inputs": [
        {
          "indexed": true,
          "name": "owner",
          "type": "address"
        },
        {
          "indexed": true,
          "name": "spender",
          "type": "address"
        },
        {
          "indexed": false,
          "name": "value",
          "type": "uint256"
        }
      ],
      "name": "Approval",
      "type": "event"
    },
    {
      "anonymous": false,
      "inputs": [
        {
          "indexed": true,
          "name": "from",
          "type": "address"
        },
        {
          "indexed": true,
          "name": "to",
          "type": "address"
        },
        {
          "indexed": false,
          "name": "value",
          "type": "uint256"
        }
      ],
      "name": "Transfer",
      "type": "event"
    },
    {
      "constant": false,
      "inputs": [
        {
          "name": "_to",
          "type": "address"
        },
        {
          "name": "_value",
          "type": "uint256"
        }
      ],
      "name": "transfer",
      "outputs": [
        {
          "name": "",
          "type": "bool"
        }
      ],
      "payable": false,
      "stateMutability": "nonpayable",
      "type": "function"
    },
    {
      "constant": false,
      "inputs": [
        {
          "name": "_from",
          "type": "address"
        },
        {
          "name": "_to",
          "type": "address"
        },
        {
          "name": "_value",
          "type": "uint256"
        }
      ],
      "name": "transferFrom",
      "outputs": [
        {
          "name": "",
          "type": "bool"
        }
      ],
      "payable": false,
      "stateMutability": "nonpayable",
      "type": "function"
    },
    {
      "constant": false,
      "inputs": [
        {
          "name": "_spender",
          "type": "address"
        },
        {
          "name": "_value",
          "type": "uint256"
        }
      ],
      "name": "approve",
      "outputs": [
        {
          "name": "",
          "type": "bool"
        }
      ],
      "payable": false,
      "stateMutability": "nonpayable",
      "type": "function"
    },
    {
      "constant": true,
      "inputs": [
        {
          "name": "_owner",
          "type": "address"
        },
        {
          "name": "_spender",
          "type": "address"
        }
      ],
      "name": "allowance",
      "outputs": [
        {
          "name": "",
          "type": "uint256"
        }
      ],
      "payable": false,
      "stateMutability": "view",
      "type": "function"
    }
  ],
  "bytecode": "0x608060405234801561001057600080fd5b5060068054600160a060020a0319163390811790915561271060078190556000918252600160205260409091205561093e8061004d6000396000f3006080604052600436106100c45763ffffffff7c010000000000000000000000000000000000000000000000000000000060003504166306fdde0381146100c9578063095ea7b31461015357806318160ddd1461018b57806323b872dd146101b2578063313ce567146101dc578063378dc3dc14610207578063661884631461021c57806370a08231146102405780638da5cb5b1461026157806395d89b4114610292578063a9059cbb146102a7578063d73dd623146102cb578063dd62ed3e146102ef575b600080fd5b3480156100d557600080fd5b506100de610316565b6040805160208082528351818301528351919283929083019185019080838360005b83811015610118578181015183820152602001610100565b50505050905090810190601f1680156101455780820380516001836020036101000a031916815260200191505b509250505060405180910390f35b34801561015f57600080fd5b50610177600160a060020a036004351660243561034d565b604080519115158252519081900360200190f35b34801561019757600080fd5b506101a0610360565b60408051918252519081900360200190f35b3480156101be57600080fd5b50610177600160a060020a0360043581169060243516604435610366565b3480156101e857600080fd5b506101f161039d565b6040805160ff9092168252519081900360200190f35b34801561021357600080fd5b506101a06103a2565b34801561022857600080fd5b50610177600160a060020a03600435166024356103a8565b34801561024c57600080fd5b506101a0600160a060020a0360043516610498565b34801561026d57600080fd5b506102766104b3565b60408051600160a060020a039092168252519081900360200190f35b34801561029e57600080fd5b506100de6104c2565b3480156102b357600080fd5b50610177600160a060020a03600435166024356104f9565b3480156102d757600080fd5b50610177600160a060020a036004351660243561052e565b3480156102fb57600080fd5b506101a0600160a060020a03600435811690602435166105c7565b60408051808201909152600981527f54657374546f6b656e0000000000000000000000000000000000000000000000602082015281565b600061035983836105d3565b9392505050565b60075481565b6000600160a060020a038316151561037d57600080fd5b61038884848461066a565b151561039357600080fd5b5060019392505050565b600081565b61271081565b336000908152600260209081526040808320600160a060020a0386168452909152812054808311156103fd57336000908152600260209081526040808320600160a060020a0388168452909152812055610432565b61040d818463ffffffff6107e316565b336000908152600260209081526040808320600160a060020a03891684529091529020555b336000818152600260209081526040808320600160a060020a0389168085529083529281902054815190815290519293927f8c5be1e5ebec7d5bd14f71427d1e84f3dd0314c0f7b2291e5b200ac8c7c3b925929181900390910190a35060019392505050565b600160a060020a031660009081526001602052604090205490565b600654600160a060020a031681565b60408051808201909152600581527f544f4b454e000000000000000000000000000000000000000000000000000000602082015281565b6000600160a060020a038316151561051057600080fd5b61051a83836107f5565b151561052557600080fd5b50600192915050565b336000908152600260209081526040808320600160a060020a0386168452909152812054610562908363ffffffff6108d816565b336000818152600260209081526040808320600160a060020a0389168085529083529281902085905580519485525191937f8c5be1e5ebec7d5bd14f71427d1e84f3dd0314c0f7b2291e5b200ac8c7c3b925929081900390910190a350600192915050565b600061035983836108e7565b6003805473ffffffffffffffffffffffffffffffffffffffff199081163390811790925560048054600160a060020a038616921682179055600583905560008281526002602090815260408083208484528252808320869055805186815290519294927f8c5be1e5ebec7d5bd14f71427d1e84f3dd0314c0f7b2291e5b200ac8c7c3b925929181900390910190a350600192915050565b6000600160a060020a038316151561068157600080fd5b600160a060020a0384166000908152600160205260409020548211156106a657600080fd5b600160a060020a03841660009081526002602090815260408083203384529091529020548211156106d657600080fd5b600160a060020a0384166000908152600160205260409020546106ff908363ffffffff6107e316565b600160a060020a038086166000908152600160205260408082209390935590851681522054610734908363ffffffff6108d816565b600160a060020a038085166000908152600160209081526040808320949094559187168152600282528281203382529091522054610778908363ffffffff6107e316565b600160a060020a03808616600081815260026020908152604080832033845282529182902094909455805186815290519287169391927fddf252ad1be2c89b69c2b068fc378daa952ba7f163c4a11628f55a4df523b3ef929181900390910190a35060019392505050565b6000828211156107ef57fe5b50900390565b6000600160a060020a038316151561080c57600080fd5b3360009081526001602052604090205482111561082857600080fd5b33600090815260016020526040902054610848908363ffffffff6107e316565b3360009081526001602052604080822092909255600160a060020a0385168152205461087a908363ffffffff6108d816565b600160a060020a0384166000818152600160209081526040918290209390935580518581529051919233927fddf252ad1be2c89b69c2b068fc378daa952ba7f163c4a11628f55a4df523b3ef9281900390910190a350600192915050565b60008282018381101561035957fe5b600160a060020a039182166000908152600260209081526040808320939094168252919091522054905600a165627a7a72305820445c3c8fc0e5ad7c70187022dc526ebbcdb1e38f9b4f86b6de857e65d76cb7c60029",
  "source": "pragma solidity ^0.4.24;\n\nimport './zeppelin/StandardToken.sol';\n\ncontract Token is StandardToken {\n    address public owner;\n\n    string public constant name = 'TestToken';\n    string public constant symbol = 'TOKEN';\n\n    // SUPPLY\n    uint8 public constant decimals = 0;\n    uint256 public constant initialSupply = 10000;\n\n    // all balance\n    uint256 public totalSupply;\n\n\n    // modifier\n    modifier onlyOwner() {\n        require(msg.sender == owner);\n        _;\n    }\n\n    // constructor function\n    constructor() public {\n        // set _owner\n        owner = msg.sender;\n        // total supply\n        totalSupply = initialSupply;\n        // owner of token contract has all tokens\n        balances[msg.sender] = initialSupply;\n    }\n    /**\n    * @dev Transfer token for a specified address when not paused\n    * @param _to The address to transfer to.\n    * @param _value The amount to be transferred.\n    */\n    function transfer(address _to, uint256 _value) public returns (bool) {\n        require(_to != address(0));\n        // transfer fund first if sender is not frozen\n        require(super.transfer(_to, _value));\n        return true;\n    }\n\n    /**\n    * @dev Transfer tokens from one address to another when not paused\n    * @param _from address The address which you want to send tokens from\n    * @param _to address The address which you want to transfer to\n    * @param _value uint256 the amount of tokens to be transferred\n    */\n    function transferFrom(address _from, address _to, uint256 _value) public returns (bool) {\n        require(_to != address(0));\n        // transfer fund\n        require(super.transferFrom(_from, _to, _value));\n        return true;\n    }\n\n    /**\n    * @dev Aprove the passed address to spend the specified amount of tokens on behalf of msg.sender when not paused.\n    * @param _spender The address which will spend the funds.\n    * @param _value The amount of tokens to be spent.\n    */\n    function approve(address _spender, uint256 _value) public returns (bool) {\n        return super.approve(_spender, _value);\n    }\n\n    function allowance(address _owner, address _spender) public constant returns (uint256) {// solium-disable-line no-constant\n        return super.allowance(_owner, _spender);\n    }\n\n}\n",
  "sourcePath": "/Users/fancy/Documents/Ocean Protocol/research/10-bonding-curve/equilibrium-bonding-curve/contracts/Token.sol",
  "compiler": {
    "name": "solc",
    "version": "0.4.24+commit.e67f0147.Emscripten.clang"
  },
  "schemaVersion": "2.0.0",
  "updatedAt": "2018-08-23T00:00:17.615Z"
}